:100000007589017905120018D9FB12002B12004ADC
:100010001200661200A980EB75900075B000120105
:10002000027590FF75B0FF120102227590FF75B046
:10003000FF74FFC333F5901201022097F674FFC3DB
:1000400033F5B012010220B7F6227590007400D388
:1000500013F5B012010230B0F67400D313F590120C
:1000600001023090F6227590FF75B0FF1201027503
:1000700090FE12010274FCF590120102D333F59048
:100080001201022097F675907F75B0FE120102757D
:1000900090FF74FCF5B0120102D333F5B0120102E7
:1000A00040F775B0FF1201022275B07F7590FF1204
:1000B000010275B03F120102741FF5B0120102D3A4
:1000C00013F5B012010220B0F675907F75B0FC12E6
:1000D000010275903F75B0FE120102741FF5907514
:1000E000B0FF120102D313F5901201022090F675B1
:1000F00090FC1201027590FE1201027590FF120130
:100100000222C0007805758C3C758AAFD28C308D88
:0A011000FDC28CC28DD8EFD0002292
:00000001FF
